{"abi":[{"type":"function","name":"getPrimaryWallet","inputs":[{"name":"wallet","type":"address","internalType":"address"}],"outputs":[{"name":"","type":"address","internalType":"address"}],"stateMutability":"view"},{"type":"function","name":"getProfile","inputs":[{"name":"primaryWallet","type":"address","internalType":"address"}],"outputs":[{"name":"username","type":"string","internalType":"string"},{"name":"linkedWallet","type":"address","internalType":"address"},{"name":"createdAt","type":"uint256","internalType":"uint256"}],"stateMutability":"view"},{"type":"function","name":"getUsernameForWallet","inputs":[{"name":"wallet","type":"address","internalType":"address"}],"outputs":[{"name":"","type":"string","internalType":"string"}],"stateMutability":"view"},{"type":"function","name":"linkWallet","inputs":[{"name":"wallet","type":"address","internalType":"address"}],"outputs":[],"stateMutability":"nonpayable"},{"type":"function","name":"linkedToPrimary","inputs":[{"name":"","type":"address","internalType":"address"}],"outputs":[{"name":"","type":"address","internalType":"address"}],"stateMutability":"view"},{"type":"function","name":"registerName","inputs":[{"name":"name","type":"string","internalType":"string"}],"outputs":[],"stateMutability":"nonpayable"},{"type":"function","name":"unlinkWallet","inputs":[],"outputs":[],"stateMutability":"nonpayable"},{"type":"function","name":"usernameToWallet","inputs":[{"name":"","type":"string","internalType":"string"}],"outputs":[{"name":"","type":"address","internalType":"address"}],"stateMutability":"view"},{"type":"event","name":"NameRegistered","inputs":[{"name":"wallet","type":"address","indexed":true,"internalType":"address"},{"name":"name","type":"string","indexed":false,"internalType":"string"}],"anonymous":false},{"type":"event","name":"WalletLinked","inputs":[{"name":"primary","type":"address","indexed":true,"internalType":"address"},{"name":"linked","type":"address","indexed":true,"internalType":"address"}],"anonymous":false},{"type":"event","name":"WalletUnlinked","inputs":[{"name":"primary","type":"address","indexed":true,"internalType":"address"},{"name":"linked","type":"address","indexed":true,"internalType":"address"}],"anonymous":false},{"type":"error","name":"AlreadyRegistered","inputs":[]},{"type":"error","name":"CannotLinkSelf","inputs":[]},{"type":"error","name":"InvalidName","inputs":[]},{"type":"error","name":"NameTaken","inputs":[]},{"type":"error","name":"NoLinkedWallet","inputs":[]},{"type":"error","name":"NotRegistered","inputs":[]},{"type":"error","name":"Unauthorized","inputs":[]},{"type":"error","name":"WalletAlreadyLinked","inputs":[]},{"type":"error","name":"WalletIsAlreadyPrimary","inputs":[]},{"type":"error","name":"ZeroAddress","inputs":[]}],"bytecode":{"object":"0x608080604052346015576109e8908161001a8239f35b5f80fdfe60806040526004361015610011575f80fd5b5f3560e01c80630830602b146104365780630f53a470146103c357806340b9c36f1461030a578063698d0f29146102c95780638a5e3a4814610257578063b8bb812614610101578063baa6500f146100bd5763bc5f061d14610071575f80fd5b346100b95760203660031901126100b9576004356001600160a01b03811681036100b9576100a16100b591610968565b6040519182916020835260208301906107bc565b0390f35b5f80fd5b346100b95760203660031901126100b9576004356001600160a01b038116908190036100b9575f526002602052602060018060a01b0360405f205416604051908152f35b346100b95760203660031901126100b9576004356001600160a01b038116908190036100b957801561024857335f52600160205261014260405f2054610848565b1561023957335f52600160205260018060a01b03600160405f2001541661020c5733811461022a57805f52600160205261017f60405f2054610848565b61021b575f818152600260205260409020546001600160a01b031661020c57335f526001602052600160405f2001816001600160601b0360a01b825416179055805f52600260205260405f2060018060a01b0333166001600160601b0360a01b825416179055337f8e0c709111388f5480579514d86663489ab1f206fe6da1a0c4d03ac8c318b3c65f80a3005b63b50f48f760e01b5f5260045ffd5b637261ced960e01b5f5260045ffd5b63d34fcce560e01b5f5260045ffd5b63aba4733960e01b5f5260045ffd5b63d92e233d60e01b5f5260045ffd5b346100b95760203660031901126100b95760043567ffffffffffffffff81116100b957366023820112156100b95761029b6020913690602481600401359101610802565b8160405191805191829101835e5f90820190815281900382019020546040516001600160a01b039091168152f35b346100b95760203660031901126100b9576004356001600160a01b03811681036100b9576102f8602091610920565b6040516001600160a01b039091168152f35b346100b9575f3660031901126100b957335f52600160205261032f60405f2054610848565b1561023957335f52600160205260018060a01b03600160405f2001541680156103b457335f526001602052600160405f20016001600160601b0360a01b8154169055805f52600260205260405f206001600160601b0360a01b8154169055337f35e6fc363a4bf723d53b26c1a751674aca9c3ead425f0591f84f5540ede86f125f80a3005b63df4ced8d60e01b5f5260045ffd5b346100b95760203660031901126100b9576004356001600160a01b038116908190036100b9575f52600160205261042760405f2060018060a01b03600182015416610412600283015492610880565b916040519384936060855260608501906107bc565b91602084015260408301520390f35b346100b95760203660031901126100b95760043567ffffffffffffffff81116100b957366023820112156100b95780600401359067ffffffffffffffff82116100b957602481019060248336920101116100b957610495368383610802565b90815180159081156107b1575b506104f6575f5b825181101561052b57828101602001516001600160f81b031916606160f81b8110158061051d575b600360fc1b821015918261050e575b50159081610505575b506104f6576001016104a9565b63430f13b360e01b5f5260045ffd5b905015856104e9565b603960f81b10159150866104e0565b50603d60f91b8111156104d1565b5082604051818382375f8183019081528190036020019020546001600160a01b03166107a257335f52600160205261056660405f2054610848565b61079357604051818382375f828201908152819003602001902080546001600160a01b03191633179055604051916060830167ffffffffffffffff81118482101761077f576040526105b9368383610802565b835260208301925f845260408101428152335f52600160205260405f20915194855167ffffffffffffffff811161077f576105f48454610848565b601f811161073a575b506020601f82116001146106b257908060029493927f56a1a2764a85c689329fbc04f299b64690a26b1dc5ac82e903cf8ad805cd539698995f926106a7575b50508160011b915f199060031b1c19161784555b516001840180546001600160a01b0319166001600160a01b03929092169190911790555191015560408051602080825281018590529184918301375f604084830101526040813394601f80199101168101030190a2005b01519050898061063c565b601f19821697855f52815f20985f5b818110610722575098600192849260029796957f56a1a2764a85c689329fbc04f299b64690a26b1dc5ac82e903cf8ad805cd53969b9c1061070a575b505050811b018455610650565b01515f1960f88460031b161c191690558980806106fd565b838301518b556001909a0199602093840193016106c1565b845f5260205f20601f830160051c81019160208410610775575b601f0160051c01905b81811061076a57506105fd565b5f815560010161075d565b9091508190610754565b634e487b7160e01b5f52604160045260245ffd5b630ea075bf60e21b5f5260045ffd5b639e4b268560e01b5f5260045ffd5b6014915011846104a2565b805180835260209291819084018484015e5f828201840152601f01601f1916010190565b90601f8019910116810190811067ffffffffffffffff82111761077f57604052565b92919267ffffffffffffffff821161077f576040519161082c601f8201601f1916602001846107e0565b8294818452818301116100b9578281602093845f960137010152565b90600182811c92168015610876575b602083101461086257565b634e487b7160e01b5f52602260045260245ffd5b91607f1691610857565b9060405191825f82549261089384610848565b80845293600181169081156108fe57506001146108ba575b506108b8925003836107e0565b565b90505f9291925260205f20905f915b8183106108e25750509060206108b8928201015f6108ab565b60209193508060019154838589010152019101909184926108c9565b9050602092506108b894915060ff191682840152151560051b8201015f6108ab565b6001600160a01b038181165f818152600260205260409020549091168061096257505f52600160205261095660405f2054610848565b61095f57505f90565b90565b91505090565b6001600160a01b039081165f818152600260205260409020549091168061099d57505f52600160205261095f60405f20610880565b90505f52600160205261095f60405f2061088056fea26469706673582212204eb4929803b22976b2bbc8826c9f1ef369f1afff43f7c2f62049da212397176764736f6c634300081a0033","linkReferences":{}},"methodIdentifiers":{"getPrimaryWallet(address)":"698d0f29","getProfile(address)":"0f53a470","getUsernameForWallet(address)":"bc5f061d","linkWallet(address)":"b8bb8126","linkedToPrimary(address)":"baa6500f","registerName(string)":"0830602b","unlinkWallet()":"40b9c36f","usernameToWallet(string)":"8a5e3a48"},"id":34}